{
	"data": {
		"bytecode": {
			"linkReferences": {},
			"object": "6080604052348015600f57600080fd5b506114548061001f6000396000f3fe608060405234801561001057600080fd5b506004361061002b5760003560e01c8063f48d772914610030575b600080fd5b61004a6004803603810190610045919061123e565b610060565b604051610057919061129b565b60405180910390f35b600080600167ffffffffffffffff81111561007e5761007d610f1c565b5b6040519080825280602002602001820160405280156100ac5781602001602082028036833780820191505090505b50905060005b60018110156100ff578381600181106100ce576100cd6112b6565b5b60200201518282815181106100e6576100e56112b6565b5b60200260200101818152505080806001019150506100b2565b50600061010c8286610127565b0361011b576001915050610121565b60009150505b92915050565b6000807f30644e72e131a029b85045b68181585d2833e84879b9709143e1f593f0000001905060006101576102b8565b90508060800151516001865161016d9190611314565b1461017757600080fd5b60006040518060400160405280600081526020016000815250905060005b865181101561022a57838782815181106101b2576101b16112b6565b5b6020026020010151106101c457600080fd5b61021b8261021685608001516001856101dd9190611314565b815181106101ee576101ed6112b6565b5b60200260200101518a8581518110610209576102086112b6565b5b60200260200101516106bc565b61075e565b91508080600101915050610195565b50610254818360800151600081518110610247576102466112b6565b5b602002602001015161075e565b905061029a8560000151866020015161026c84610826565b856040015161027e8a60400151610826565b87606001516102908960000151610826565b89602001516108cb565b6102aa57600193505050506102b2565b600093505050505b92915050565b6102c0610de8565b60405180604001604052807f0f841590c9c9e066e8f3dd9ea7feeaf393aaf5b2a4550257f9bf37c9455cfa2781526020017f2fb9ce6c0c5ecabace36e7f1d3b27c1739ecac0938b07557c8840ff4985b74f88152508160000181905250604051806040016040528060405180604001604052807f1de3e76b54a6d2a02092f847342c37df821d0dfd2dfeac68ea335eacd72c21e581526020017f289569bd85457d18ce54f4886d9476916556a62b82fb1f77e493f6ffdbf3eb7a815250815260200160405180604001604052807f1f9dea3ca91e62e6fa09e3970aab3f075f57800ff0a77bd72695d8413ff96bb381526020017f187aa3e7a6b25f15cb5827a2189482f254bafa85b5b176232cc970d70227f3038152508152508160200181905250604051806040016040528060405180604001604052807f0e1aec1e9eea8ca5b2cf9381682bcdae4eb97386f7b9bc2d92066762881f8ecd81526020017f09815e63cacb11b294ad6d2656e431c5dba59b14f0c08ebb1a563cf5e628e7ee815250815260200160405180604001604052807f0a23dd86b728b8cdb8efe67b41135fd0e03ec5209cbab5483c70f295c144e23581526020017f15def05b246277323ce22b6a4bae3e6fab34aacf30c66ea6777829a08d28a3578152508152508160400181905250604051806040016040528060405180604001604052807f09e62aab58e863c6607ba69b04aa4f1937145e860187b4ef7a86e9deec1f2eac81526020017f2dfaf0e15bbdd3ea49c6c952056a47e76921f3b22dce9ccc3d2680008aa8d580815250815260200160405180604001604052807f2c7e2e03e23cdb894b894d6716976e8c87ca1948f6d186a660b69db5845626dc81526020017f1d933f762a0e114baed2e62a480e55a4aea2778ebb08f590dd7c7f6dc976c8798152508152508160600181905250600267ffffffffffffffff81111561058757610586610f1c565b5b6040519080825280602002602001820160405280156105c057816020015b6105ad610e2f565b8152602001906001900390816105a55790505b50816080018190525060405180604001604052807f084d05ae5b0314caafacd1fa1153f20b9d90c7eb85a18e04978ae4baccf9b9f681526020017f19d4edf464a08d85b3a32b20b657bd96fed3f86e87af077d3cf837785e81ee308152508160800151600081518110610636576106356112b6565b5b602002602001018190525060405180604001604052807f213d930d875d33041140814c3ddcc7a781a6162069ecd8dc1b3aac4625a6f1d681526020017f2b58d18ead8361aa4c70bf838593d0a90c58fcbe51217776df82bcd74abb7f0d81525081608001516001815181106106ae576106ad6112b6565b5b602002602001018190525090565b6106c4610e2f565b6106cc610e49565b8360000151816000600381106106e5576106e46112b6565b5b602002018181525050836020015181600160038110610707576107066112b6565b5b6020020181815250508281600260038110610725576107246112b6565b5b602002018181525050600060608360808460076107d05a03fa9050806000810361074b57fe5b508061075657600080fd5b505092915050565b610766610e2f565b61076e610e6b565b836000015181600060048110610787576107866112b6565b5b6020020181815250508360200151816001600481106107a9576107a86112b6565b5b6020020181815250508260000151816002600481106107cb576107ca6112b6565b5b6020020181815250508260200151816003600481106107ed576107ec6112b6565b5b602002018181525050600060608360c08460066107d05a03fa9050806000810361081357fe5b508061081e57600080fd5b505092915050565b61082e610e2f565b60007f30644e72e131a029b85045b68181585d97816a916871ca8d3c208c16d87cfd4790506000836000015114801561086b575060008360200151145b1561088f5760405180604001604052806000815260200160008152509150506108c6565b6040518060400160405280846000015181526020018285602001516108b49190611377565b836108bf91906113a8565b8152509150505b919050565b600080600467ffffffffffffffff8111156108e9576108e8610f1c565b5b60405190808252806020026020018201604052801561092257816020015b61090f610e2f565b8152602001906001900390816109075790505b5090506000600467ffffffffffffffff81111561094257610941610f1c565b5b60405190808252806020026020018201604052801561097b57816020015b610968610e8d565b8152602001906001900390816109605790505b5090508a82600081518110610993576109926112b6565b5b602002602001018190525088826001815181106109b3576109b26112b6565b5b602002602001018190525086826002815181106109d3576109d26112b6565b5b602002602001018190525084826003815181106109f3576109f26112b6565b5b60200260200101819052508981600081518110610a1357610a126112b6565b5b60200260200101819052508781600181518110610a3357610a326112b6565b5b60200260200101819052508581600281518110610a5357610a526112b6565b5b60200260200101819052508381600381518110610a7357610a726112b6565b5b6020026020010181905250610a888282610a98565b9250505098975050505050505050565b60008151835114610aa857600080fd5b6000835190506000600682610abd91906113dc565b905060008167ffffffffffffffff811115610adb57610ada610f1c565b5b604051908082528060200260200182016040528015610b095781602001602082028036833780820191505090505b50905060005b83811015610d8857868181518110610b2a57610b296112b6565b5b602002602001015160000151826000600684610b4691906113dc565b610b509190611314565b81518110610b6157610b606112b6565b5b602002602001018181525050868181518110610b8057610b7f6112b6565b5b602002602001015160200151826001600684610b9c91906113dc565b610ba69190611314565b81518110610bb757610bb66112b6565b5b602002602001018181525050858181518110610bd657610bd56112b6565b5b602002602001015160000151600160028110610bf557610bf46112b6565b5b6020020151826002600684610c0a91906113dc565b610c149190611314565b81518110610c2557610c246112b6565b5b602002602001018181525050858181518110610c4457610c436112b6565b5b602002602001015160000151600060028110610c6357610c626112b6565b5b6020020151826003600684610c7891906113dc565b610c829190611314565b81518110610c9357610c926112b6565b5b602002602001018181525050858181518110610cb257610cb16112b6565b5b602002602001015160200151600160028110610cd157610cd06112b6565b5b6020020151826004600684610ce691906113dc565b610cf09190611314565b81518110610d0157610d006112b6565b5b602002602001018181525050858181518110610d2057610d1f6112b6565b5b602002602001015160200151600060028110610d3f57610d3e6112b6565b5b6020020151826005600684610d5491906113dc565b610d5e9190611314565b81518110610d6f57610d6e6112b6565b5b6020026020010181815250508080600101915050610b0f565b50610d91610eb3565b6000602082602086026020860160086107d05a03fa90508060008103610db357fe5b5080610dbe57600080fd5b600082600060018110610dd457610dd36112b6565b5b602002015114159550505050505092915050565b6040518060a00160405280610dfb610e2f565b8152602001610e08610e8d565b8152602001610e15610e8d565b8152602001610e22610e8d565b8152602001606081525090565b604051806040016040528060008152602001600081525090565b6040518060600160405280600390602082028036833780820191505090505090565b6040518060800160405280600490602082028036833780820191505090505090565b6040518060400160405280610ea0610ed5565b8152602001610ead610ed5565b81525090565b6040518060200160405280600190602082028036833780820191505090505090565b6040518060400160405280600290602082028036833780820191505090505090565b6000604051905090565b600080fd5b600080fd5b6000601f19601f8301169050919050565b7f4e487b7100000000000000000000000000000000000000000000000000000000600052604160045260246000fd5b610f5482610f0b565b810181811067ffffffffffffffff82111715610f7357610f72610f1c565b5b80604052505050565b6000610f86610ef7565b9050610f928282610f4b565b919050565b6000819050919050565b610faa81610f97565b8114610fb557600080fd5b50565b600081359050610fc781610fa1565b92915050565b600060408284031215610fe357610fe2610f06565b5b610fed6040610f7c565b90506000610ffd84828501610fb8565b600083015250602061101184828501610fb8565b60208301525092915050565b600080fd5b600067ffffffffffffffff82111561103d5761103c610f1c565b5b602082029050919050565b600080fd5b600061106061105b84611022565b610f7c565b9050806020840283018581111561107a57611079611048565b5b835b818110156110a3578061108f8882610fb8565b84526020840193505060208101905061107c565b5050509392505050565b600082601f8301126110c2576110c161101d565b5b60026110cf84828561104d565b91505092915050565b6000608082840312156110ee576110ed610f06565b5b6110f86040610f7c565b90506000611108848285016110ad565b600083015250604061111c848285016110ad565b60208301525092915050565b6000610100828403121561113f5761113e610f06565b5b6111496060610f7c565b9050600061115984828501610fcd565b600083015250604061116d848285016110d8565b60208301525060c061118184828501610fcd565b60408301525092915050565b600067ffffffffffffffff8211156111a8576111a7610f1c565b5b602082029050919050565b60006111c66111c18461118d565b610f7c565b905080602084028301858111156111e0576111df611048565b5b835b8181101561120957806111f58882610fb8565b8452602084019350506020810190506111e2565b5050509392505050565b600082601f8301126112285761122761101d565b5b60016112358482856111b3565b91505092915050565b600080610120838503121561125657611255610f01565b5b600061126485828601611128565b92505061010061127685828601611213565b9150509250929050565b60008115159050919050565b61129581611280565b82525050565b60006020820190506112b0600083018461128c565b92915050565b7f4e487b7100000000000000000000000000000000000000000000000000000000600052603260045260246000fd5b7f4e487b7100000000000000000000000000000000000000000000000000000000600052601160045260246000fd5b600061131f82610f97565b915061132a83610f97565b9250828201905080821115611342576113416112e5565b5b92915050565b7f4e487b7100000000000000000000000000000000000000000000000000000000600052601260045260246000fd5b600061138282610f97565b915061138d83610f97565b92508261139d5761139c611348565b5b828206905092915050565b60006113b382610f97565b91506113be83610f97565b92508282039050818111156113d6576113d56112e5565b5b92915050565b60006113e782610f97565b91506113f283610f97565b925082820261140081610f97565b91508282048414831517611417576114166112e5565b5b509291505056fea26469706673582212206fc37063b0bb170df0dd7ba21dd4aadcee779aaf5a38bbb7d36887cb184efaab64736f6c634300081a0033",
			"opcodes": "PUSH1 0x80 PUSH1 0x40 MSTORE CALLVALUE DUP1 ISZERO PUSH1 0xF JUMPI PUSH1 0x0 DUP1 REVERT JUMPDEST POP PUSH2 0x1454 DUP1 PUSH2 0x1F PUSH1 0x0 CODECOPY PUSH1 0x0 RETURN INVALID PUSH1 0x80 PUSH1 0x40 MSTORE CALLVALUE DUP1 ISZERO PUSH2 0x10 JUMPI PUSH1 0x0 DUP1 REVERT JUMPDEST POP PUSH1 0x4 CALLDATASIZE LT PUSH2 0x2B JUMPI PUSH1 0x0 CALLDATALOAD PUSH1 0xE0 SHR DUP1 PUSH4 0xF48D7729 EQ PUSH2 0x30 JUMPI JUMPDEST PUSH1 0x0 DUP1 REVERT JUMPDEST PUSH2 0x4A PUSH1 0x4 DUP1 CALLDATASIZE SUB DUP2 ADD SWAP1 PUSH2 0x45 SWAP2 SWAP1 PUSH2 0x123E JUMP JUMPDEST PUSH2 0x60 JUMP JUMPDEST PUSH1 0x40 MLOAD PUSH2 0x57 SWAP2 SWAP1 PUSH2 0x129B JUMP JUMPDEST PUSH1 0x40 MLOAD DUP1 SWAP2 SUB SWAP1 RETURN JUMPDEST PUSH1 0x0 DUP1 PUSH1 0x1 PUSH8 0xFFFFFFFFFFFFFFFF DUP2 GT ISZERO PUSH2 0x7E JUMPI PUSH2 0x7D PUSH2 0xF1C JUMP JUMPDEST JUMPDEST PUSH1 0x40 MLOAD SWAP1 DUP1 DUP3 MSTORE DUP1 PUSH1 0x20 MUL PUSH1 0x20 ADD DUP3 ADD PUSH1 0x40 MSTORE DUP1 ISZERO PUSH2 0xAC JUMPI DUP2 PUSH1 0x20 ADD PUSH1 0x20 DUP3 MUL DUP1 CALLDATASIZE DUP4 CALLDATACOPY DUP1 DUP3 ADD SWAP2 POP POP SWAP1 POP JUMPDEST POP SWAP1 POP PUSH1 0x0 JUMPDEST PUSH1 0x1 DUP2 LT ISZERO PUSH2 0xFF JUMPI DUP4 DUP2 PUSH1 0x1 DUP2 LT PUSH2 0xCE JUMPI PUSH2 0xCD PUSH2 0x12B6 JUMP JUMPDEST JUMPDEST PUSH1 0x20 MUL ADD MLOAD DUP3 DUP3 DUP2 MLOAD DUP2 LT PUSH2 0xE6 JUMPI PUSH2 0xE5 PUSH2 0x12B6 JUMP JUMPDEST JUMPDEST PUSH1 0x20 MUL PUSH1 0x20 ADD ADD DUP2 DUP2 MSTORE POP POP DUP1 DUP1 PUSH1 0x1 ADD SWAP2 POP POP PUSH2 0xB2 JUMP JUMPDEST POP PUSH1 0x0 PUSH2 0x10C DUP3 DUP7 PUSH2 0x127 JUMP JUMPDEST SUB PUSH2 0x11B JUMPI PUSH1 0x1 SWAP2 POP POP PUSH2 0x121 JUMP JUMPDEST PUSH1 0x0 SWAP2 POP POP JUMPDEST SWAP3 SWAP2 POP POP JUMP JUMPDEST PUSH1 0x0 DUP1 PUSH32 0x30644E72E131A029B85045B68181585D2833E84879B9709143E1F593F0000001 SWAP1 POP PUSH1 0x0 PUSH2 0x157 PUSH2 0x2B8 JUMP JUMPDEST SWAP1 POP DUP1 PUSH1 0x80 ADD MLOAD MLOAD PUSH1 0x1 DUP7 MLOAD PUSH2 0x16D SWAP2 SWAP1 PUSH2 0x1314 JUMP JUMPDEST EQ PUSH2 0x177 JUMPI PUSH1 0x0 DUP1 REVERT JUMPDEST PUSH1 0x0 PUSH1 0x40 MLOAD DUP1 PUSH1 0x40 ADD PUSH1 0x40 MSTORE DUP1 PUSH1 0x0 DUP2 MSTORE PUSH1 0x20 ADD PUSH1 0x0 DUP2 MSTORE POP SWAP1 POP PUSH1 0x0 JUMPDEST DUP7 MLOAD DUP2 LT ISZERO PUSH2 0x22A JUMPI DUP4 DUP8 DUP3 DUP2 MLOAD DUP2 LT PUSH2 0x1B2 JUMPI PUSH2 0x1B1 PUSH2 0x12B6 JUMP JUMPDEST JUMPDEST PUSH1 0x20 MUL PUSH1 0x20 ADD ADD MLOAD LT PUSH2 0x1C4 JUMPI PUSH1 0x0 DUP1 REVERT JUMPDEST PUSH2 0x21B DUP3 PUSH2 0x216 DUP6 PUSH1 0x80 ADD MLOAD PUSH1 0x1 DUP6 PUSH2 0x1DD SWAP2 SWAP1 PUSH2 0x1314 JUMP JUMPDEST DUP2 MLOAD DUP2 LT PUSH2 0x1EE JUMPI PUSH2 0x1ED PUSH2 0x12B6 JUMP JUMPDEST JUMPDEST PUSH1 0x20 MUL PUSH1 0x20 ADD ADD MLOAD DUP11 DUP6 DUP2 MLOAD DUP2 LT PUSH2 0x209 JUMPI PUSH2 0x208 PUSH2 0x12B6 JUMP JUMPDEST JUMPDEST PUSH1 0x20 MUL PUSH1 0x20 ADD ADD MLOAD PUSH2 0x6BC JUMP JUMPDEST PUSH2 0x75E JUMP JUMPDEST SWAP2 POP DUP1 DUP1 PUSH1 0x1 ADD SWAP2 POP POP PUSH2 0x195 JUMP JUMPDEST POP PUSH2 0x254 DUP2 DUP4 PUSH1 0x80 ADD MLOAD PUSH1 0x0 DUP2 MLOAD DUP2 LT PUSH2 0x247 JUMPI PUSH2 0x246 PUSH2 0x12B6 JUMP JUMPDEST JUMPDEST PUSH1 0x20 MUL PUSH1 0x20 ADD ADD MLOAD PUSH2 0x75E JUMP JUMPDEST SWAP1 POP PUSH2 0x29A DUP6 PUSH1 0x0 ADD MLOAD DUP7 PUSH1 0x20 ADD MLOAD PUSH2 0x26C DUP5 PUSH2 0x826 JUMP JUMPDEST DUP6 PUSH1 0x40 ADD MLOAD PUSH2 0x27E DUP11 PUSH1 0x40 ADD MLOAD PUSH2 0x826 JUMP JUMPDEST DUP8 PUSH1 0x60 ADD MLOAD PUSH2 0x290 DUP10 PUSH1 0x0 ADD MLOAD PUSH2 0x826 JUMP JUMPDEST DUP10 PUSH1 0x20 ADD MLOAD PUSH2 0x8CB JUMP JUMPDEST PUSH2 0x2AA JUMPI PUSH1 0x1 SWAP4 POP POP POP POP PUSH2 0x2B2 JUMP JUMPDEST PUSH1 0x0 SWAP4 POP POP POP POP JUMPDEST SWAP3 SWAP2 POP POP JUMP JUMPDEST PUSH2 0x2C0 PUSH2 0xDE8 JUMP JUMPDEST PUSH1 0x40 MLOAD DUP1 PUSH1 0x40 ADD PUSH1 0x40 MSTORE DUP1 PUSH32 0xF841590C9C9E066E8F3DD9EA7FEEAF393AAF5B2A4550257F9BF37C9455CFA27 DUP2 MSTORE PUSH1 0x20 ADD PUSH32 0x2FB9CE6C0C5ECABACE36E7F1D3B27C1739ECAC0938B07557C8840FF4985B74F8 DUP2 MSTORE POP DUP2 PUSH1 0x0 ADD DUP2 SWAP1 MSTORE POP PUSH1 0x40 MLOAD DUP1 PUSH1 0x40 ADD PUSH1 0x40 MSTORE DUP1 PUSH1 0x40 MLOAD DUP1 PUSH1 0x40 ADD PUSH1 0x40 MSTORE DUP1 PUSH32 0x1DE3E76B54A6D2A02092F847342C37DF821D0DFD2DFEAC68EA335EACD72C21E5 DUP2 MSTORE PUSH1 0x20 ADD PUSH32 0x289569BD85457D18CE54F4886D9476916556A62B82FB1F77E493F6FFDBF3EB7A DUP2 MSTORE POP DUP2 MSTORE PUSH1 0x20 ADD PUSH1 0x40 MLOAD DUP1 PUSH1 0x40 ADD PUSH1 0x40 MSTORE DUP1 PUSH32 0x1F9DEA3CA91E62E6FA09E3970AAB3F075F57800FF0A77BD72695D8413FF96BB3 DUP2 MSTORE PUSH1 0x20 ADD PUSH32 0x187AA3E7A6B25F15CB5827A2189482F254BAFA85B5B176232CC970D70227F303 DUP2 MSTORE POP DUP2 MSTORE POP DUP2 PUSH1 0x20 ADD DUP2 SWAP1 MSTORE POP PUSH1 0x40 MLOAD DUP1 PUSH1 0x40 ADD PUSH1 0x40 MSTORE DUP1 PUSH1 0x40 MLOAD DUP1 PUSH1 0x40 ADD PUSH1 0x40 MSTORE DUP1 PUSH32 0xE1AEC1E9EEA8CA5B2CF9381682BCDAE4EB97386F7B9BC2D92066762881F8ECD DUP2 MSTORE PUSH1 0x20 ADD PUSH32 0x9815E63CACB11B294AD6D2656E431C5DBA59B14F0C08EBB1A563CF5E628E7EE DUP2 MSTORE POP DUP2 MSTORE PUSH1 0x20 ADD PUSH1 0x40 MLOAD DUP1 PUSH1 0x40 ADD PUSH1 0x40 MSTORE DUP1 PUSH32 0xA23DD86B728B8CDB8EFE67B41135FD0E03EC5209CBAB5483C70F295C144E235 DUP2 MSTORE PUSH1 0x20 ADD PUSH32 0x15DEF05B246277323CE22B6A4BAE3E6FAB34AACF30C66EA6777829A08D28A357 DUP2 MSTORE POP DUP2 MSTORE POP DUP2 PUSH1 0x40 ADD DUP2 SWAP1 MSTORE POP PUSH1 0x40 MLOAD DUP1 PUSH1 0x40 ADD PUSH1 0x40 MSTORE DUP1 PUSH1 0x40 MLOAD DUP1 PUSH1 0x40 ADD PUSH1 0x40 MSTORE DUP1 PUSH32 0x9E62AAB58E863C6607BA69B04AA4F1937145E860187B4EF7A86E9DEEC1F2EAC DUP2 MSTORE PUSH1 0x20 ADD PUSH32 0x2DFAF0E15BBDD3EA49C6C952056A47E76921F3B22DCE9CCC3D2680008AA8D580 DUP2 MSTORE POP DUP2 MSTORE PUSH1 0x20 ADD PUSH1 0x40 MLOAD DUP1 PUSH1 0x40 ADD PUSH1 0x40 MSTORE DUP1 PUSH32 0x2C7E2E03E23CDB894B894D6716976E8C87CA1948F6D186A660B69DB5845626DC DUP2 MSTORE PUSH1 0x20 ADD PUSH32 0x1D933F762A0E114BAED2E62A480E55A4AEA2778EBB08F590DD7C7F6DC976C879 DUP2 MSTORE POP DUP2 MSTORE POP DUP2 PUSH1 0x60 ADD DUP2 SWAP1 MSTORE POP PUSH1 0x2 PUSH8 0xFFFFFFFFFFFFFFFF DUP2 GT ISZERO PUSH2 0x587 JUMPI PUSH2 0x586 PUSH2 0xF1C JUMP JUMPDEST JUMPDEST PUSH1 0x40 MLOAD SWAP1 DUP1 DUP3 MSTORE DUP1 PUSH1 0x20 MUL PUSH1 0x20 ADD DUP3 ADD PUSH1 0x40 MSTORE DUP1 ISZERO PUSH2 0x5C0 JUMPI DUP2 PUSH1 0x20 ADD JUMPDEST PUSH2 0x5AD PUSH2 0xE2F JUMP JUMPDEST DUP2 MSTORE PUSH1 0x20 ADD SWAP1 PUSH1 0x1 SWAP1 SUB SWAP1 DUP2 PUSH2 0x5A5 JUMPI SWAP1 POP JUMPDEST POP DUP2 PUSH1 0x80 ADD DUP2 SWAP1 MSTORE POP PUSH1 0x40 MLOAD DUP1 PUSH1 0x40 ADD PUSH1 0x40 MSTORE DUP1 PUSH32 0x84D05AE5B0314CAAFACD1FA1153F20B9D90C7EB85A18E04978AE4BACCF9B9F6 DUP2 MSTORE PUSH1 0x20 ADD PUSH32 0x19D4EDF464A08D85B3A32B20B657BD96FED3F86E87AF077D3CF837785E81EE30 DUP2 MSTORE POP DUP2 PUSH1 0x80 ADD MLOAD PUSH1 0x0 DUP2 MLOAD DUP2 LT PUSH2 0x636 JUMPI PUSH2 0x635 PUSH2 0x12B6 JUMP JUMPDEST JUMPDEST PUSH1 0x20 MUL PUSH1 0x20 ADD ADD DUP2 SWAP1 MSTORE POP PUSH1 0x40 MLOAD DUP1 PUSH1 0x40 ADD PUSH1 0x40 MSTORE DUP1 PUSH32 0x213D930D875D33041140814C3DDCC7A781A6162069ECD8DC1B3AAC4625A6F1D6 DUP2 MSTORE PUSH1 0x20 ADD PUSH32 0x2B58D18EAD8361AA4C70BF838593D0A90C58FCBE51217776DF82BCD74ABB7F0D DUP2 MSTORE POP DUP2 PUSH1 0x80 ADD MLOAD PUSH1 0x1 DUP2 MLOAD DUP2 LT PUSH2 0x6AE JUMPI PUSH2 0x6AD PUSH2 0x12B6 JUMP JUMPDEST JUMPDEST PUSH1 0x20 MUL PUSH1 0x20 ADD ADD DUP2 SWAP1 MSTORE POP SWAP1 JUMP JUMPDEST PUSH2 0x6C4 PUSH2 0xE2F JUMP JUMPDEST PUSH2 0x6CC PUSH2 0xE49 JUMP JUMPDEST DUP4 PUSH1 0x0 ADD MLOAD DUP2 PUSH1 0x0 PUSH1 0x3 DUP2 LT PUSH2 0x6E5 JUMPI PUSH2 0x6E4 PUSH2 0x12B6 JUMP JUMPDEST JUMPDEST PUSH1 0x20 MUL ADD DUP2 DUP2 MSTORE POP POP DUP4 PUSH1 0x20 ADD MLOAD DUP2 PUSH1 0x1 PUSH1 0x3 DUP2 LT PUSH2 0x707 JUMPI PUSH2 0x706 PUSH2 0x12B6 JUMP JUMPDEST JUMPDEST PUSH1 0x20 MUL ADD DUP2 DUP2 MSTORE POP POP DUP3 DUP2 PUSH1 0x2 PUSH1 0x3 DUP2 LT PUSH2 0x725 JUMPI PUSH2 0x724 PUSH2 0x12B6 JUMP JUMPDEST JUMPDEST PUSH1 0x20 MUL ADD DUP2 DUP2 MSTORE POP POP PUSH1 0x0 PUSH1 0x60 DUP4 PUSH1 0x80 DUP5 PUSH1 0x7 PUSH2 0x7D0 GAS SUB STATICCALL SWAP1 POP DUP1 PUSH1 0x0 DUP2 SUB PUSH2 0x74B JUMPI INVALID JUMPDEST POP DUP1 PUSH2 0x756 JUMPI PUSH1 0x0 DUP1 REVERT JUMPDEST POP POP SWAP3 SWAP2 POP POP JUMP JUMPDEST PUSH2 0x766 PUSH2 0xE2F JUMP JUMPDEST PUSH2 0x76E PUSH2 0xE6B JUMP JUMPDEST DUP4 PUSH1 0x0 ADD MLOAD DUP2 PUSH1 0x0 PUSH1 0x4 DUP2 LT PUSH2 0x787 JUMPI PUSH2 0x786 PUSH2 0x12B6 JUMP JUMPDEST JUMPDEST PUSH1 0x20 MUL ADD DUP2 DUP2 MSTORE POP POP DUP4 PUSH1 0x20 ADD MLOAD DUP2 PUSH1 0x1 PUSH1 0x4 DUP2 LT PUSH2 0x7A9 JUMPI PUSH2 0x7A8 PUSH2 0x12B6 JUMP JUMPDEST JUMPDEST PUSH1 0x20 MUL ADD DUP2 DUP2 MSTORE POP POP DUP3 PUSH1 0x0 ADD MLOAD DUP2 PUSH1 0x2 PUSH1 0x4 DUP2 LT PUSH2 0x7CB JUMPI PUSH2 0x7CA PUSH2 0x12B6 JUMP JUMPDEST JUMPDEST PUSH1 0x20 MUL ADD DUP2 DUP2 MSTORE POP POP DUP3 PUSH1 0x20 ADD MLOAD DUP2 PUSH1 0x3 PUSH1 0x4 DUP2 LT PUSH2 0x7ED JUMPI PUSH2 0x7EC PUSH2 0x12B6 JUMP JUMPDEST JUMPDEST PUSH1 0x20 MUL ADD DUP2 DUP2 MSTORE POP POP PUSH1 0x0 PUSH1 0x60 DUP4 PUSH1 0xC0 DUP5 PUSH1 0x6 PUSH2 0x7D0 GAS SUB STATICCALL SWAP1 POP DUP1 PUSH1 0x0 DUP2 SUB PUSH2 0x813 JUMPI INVALID JUMPDEST POP DUP1 PUSH2 0x81E JUMPI PUSH1 0x0 DUP1 REVERT JUMPDEST POP POP SWAP3 SWAP2 POP POP JUMP JUMPDEST PUSH2 0x82E PUSH2 0xE2F JUMP JUMPDEST PUSH1 0x0 PUSH32 0x30644E72E131A029B85045B68181585D97816A916871CA8D3C208C16D87CFD47 SWAP1 POP PUSH1 0x0 DUP4 PUSH1 0x0 ADD MLOAD EQ DUP1 ISZERO PUSH2 0x86B JUMPI POP PUSH1 0x0 DUP4 PUSH1 0x20 ADD MLOAD EQ JUMPDEST ISZERO PUSH2 0x88F JUMPI PUSH1 0x40 MLOAD DUP1 PUSH1 0x40 ADD PUSH1 0x40 MSTORE DUP1 PUSH1 0x0 DUP2 MSTORE PUSH1 0x20 ADD PUSH1 0x0 DUP2 MSTORE POP SWAP2 POP POP PUSH2 0x8C6 JUMP JUMPDEST PUSH1 0x40 MLOAD DUP1 PUSH1 0x40 ADD PUSH1 0x40 MSTORE DUP1 DUP5 PUSH1 0x0 ADD MLOAD DUP2 MSTORE PUSH1 0x20 ADD DUP3 DUP6 PUSH1 0x20 ADD MLOAD PUSH2 0x8B4 SWAP2 SWAP1 PUSH2 0x1377 JUMP JUMPDEST DUP4 PUSH2 0x8BF SWAP2 SWAP1 PUSH2 0x13A8 JUMP JUMPDEST DUP2 MSTORE POP SWAP2 POP POP JUMPDEST SWAP2 SWAP1 POP JUMP JUMPDEST PUSH1 0x0 DUP1 PUSH1 0x4 PUSH8 0xFFFFFFFFFFFFFFFF DUP2 GT ISZERO PUSH2 0x8E9 JUMPI PUSH2 0x8E8 PUSH2 0xF1C JUMP JUMPDEST JUMPDEST PUSH1 0x40 MLOAD SWAP1 DUP1 DUP3 MSTORE DUP1 PUSH1 0x20 MUL PUSH1 0x20 ADD DUP3 ADD PUSH1 0x40 MSTORE DUP1 ISZERO PUSH2 0x922 JUMPI DUP2 PUSH1 0x20 ADD JUMPDEST PUSH2 0x90F PUSH2 0xE2F JUMP JUMPDEST DUP2 MSTORE PUSH1 0x20 ADD SWAP1 PUSH1 0x1 SWAP1 SUB SWAP1 DUP2 PUSH2 0x907 JUMPI SWAP1 POP JUMPDEST POP SWAP1 POP PUSH1 0x0 PUSH1 0x4 PUSH8 0xFFFFFFFFFFFFFFFF DUP2 GT ISZERO PUSH2 0x942 JUMPI PUSH2 0x941 PUSH2 0xF1C JUMP JUMPDEST JUMPDEST PUSH1 0x40 MLOAD SWAP1 DUP1 DUP3 MSTORE DUP1 PUSH1 0x20 MUL PUSH1 0x20 ADD DUP3 ADD PUSH1 0x40 MSTORE DUP1 ISZERO PUSH2 0x97B JUMPI DUP2 PUSH1 0x20 ADD JUMPDEST PUSH2 0x968 PUSH2 0xE8D JUMP JUMPDEST DUP2 MSTORE PUSH1 0x20 ADD SWAP1 PUSH1 0x1 SWAP1 SUB SWAP1 DUP2 PUSH2 0x960 JUMPI SWAP1 POP JUMPDEST POP SWAP1 POP DUP11 DUP3 PUSH1 0x0 DUP2 MLOAD DUP2 LT PUSH2 0x993 JUMPI PUSH2 0x992 PUSH2 0x12B6 JUMP JUMPDEST JUMPDEST PUSH1 0x20 MUL PUSH1 0x20 ADD ADD DUP2 SWAP1 MSTORE POP DUP9 DUP3 PUSH1 0x1 DUP2 MLOAD DUP2 LT PUSH2 0x9B3 JUMPI PUSH2 0x9B2 PUSH2 0x12B6 JUMP JUMPDEST JUMPDEST PUSH1 0x20 MUL PUSH1 0x20 ADD ADD DUP2 SWAP1 MSTORE POP DUP7 DUP3 PUSH1 0x2 DUP2 MLOAD DUP2 LT PUSH2 0x9D3 JUMPI PUSH2 0x9D2 PUSH2 0x12B6 JUMP JUMPDEST JUMPDEST PUSH1 0x20 MUL PUSH1 0x20 ADD ADD DUP2 SWAP1 MSTORE POP DUP5 DUP3 PUSH1 0x3 DUP2 MLOAD DUP2 LT PUSH2 0x9F3 JUMPI PUSH2 0x9F2 PUSH2 0x12B6 JUMP JUMPDEST JUMPDEST PUSH1 0x20 MUL PUSH1 0x20 ADD ADD DUP2 SWAP1 MSTORE POP DUP10 DUP2 PUSH1 0x0 DUP2 MLOAD DUP2 LT PUSH2 0xA13 JUMPI PUSH2 0xA12 PUSH2 0x12B6 JUMP JUMPDEST JUMPDEST PUSH1 0x20 MUL PUSH1 0x20 ADD ADD DUP2 SWAP1 MSTORE POP DUP8 DUP2 PUSH1 0x1 DUP2 MLOAD DUP2 LT PUSH2 0xA33 JUMPI PUSH2 0xA32 PUSH2 0x12B6 JUMP JUMPDEST JUMPDEST PUSH1 0x20 MUL PUSH1 0x20 ADD ADD DUP2 SWAP1 MSTORE POP DUP6 DUP2 PUSH1 0x2 DUP2 MLOAD DUP2 LT PUSH2 0xA53 JUMPI PUSH2 0xA52 PUSH2 0x12B6 JUMP JUMPDEST JUMPDEST PUSH1 0x20 MUL PUSH1 0x20 ADD ADD DUP2 SWAP1 MSTORE POP DUP4 DUP2 PUSH1 0x3 DUP2 MLOAD DUP2 LT PUSH2 0xA73 JUMPI PUSH2 0xA72 PUSH2 0x12B6 JUMP JUMPDEST JUMPDEST PUSH1 0x20 MUL PUSH1 0x20 ADD ADD DUP2 SWAP1 MSTORE POP PUSH2 0xA88 DUP3 DUP3 PUSH2 0xA98 JUMP JUMPDEST SWAP3 POP POP POP SWAP9 SWAP8 POP POP POP POP POP POP POP POP JUMP JUMPDEST PUSH1 0x0 DUP2 MLOAD DUP4 MLOAD EQ PUSH2 0xAA8 JUMPI PUSH1 0x0 DUP1 REVERT JUMPDEST PUSH1 0x0 DUP4 MLOAD SWAP1 POP PUSH1 0x0 PUSH1 0x6 DUP3 PUSH2 0xABD SWAP2 SWAP1 PUSH2 0x13DC JUMP JUMPDEST SWAP1 POP PUSH1 0x0 DUP2 PUSH8 0xFFFFFFFFFFFFFFFF DUP2 GT ISZERO PUSH2 0xADB JUMPI PUSH2 0xADA PUSH2 0xF1C JUMP JUMPDEST JUMPDEST PUSH1 0x40 MLOAD SWAP1 DUP1 DUP3 MSTORE DUP1 PUSH1 0x20 MUL PUSH1 0x20 ADD DUP3 ADD PUSH1 0x40 MSTORE DUP1 ISZERO PUSH2 0xB09 JUMPI DUP2 PUSH1 0x20 ADD PUSH1 0x20 DUP3 MUL DUP1 CALLDATASIZE DUP4 CALLDATACOPY DUP1 DUP3 ADD SWAP2 POP POP SWAP1 POP JUMPDEST POP SWAP1 POP PUSH1 0x0 JUMPDEST DUP4 DUP2 LT ISZERO PUSH2 0xD88 JUMPI DUP7 DUP2 DUP2 MLOAD DUP2 LT PUSH2 0xB2A JUMPI PUSH2 0xB29 PUSH2 0x12B6 JUMP JUMPDEST JUMPDEST PUSH1 0x20 MUL PUSH1 0x20 ADD ADD MLOAD PUSH1 0x0 ADD MLOAD DUP3 PUSH1 0x0 PUSH1 0x6 DUP5 PUSH2 0xB46 SWAP2 SWAP1 PUSH2 0x13DC JUMP JUMPDEST PUSH2 0xB50 SWAP2 SWAP1 PUSH2 0x1314 JUMP JUMPDEST DUP2 MLOAD DUP2 LT PUSH2 0xB61 JUMPI PUSH2 0xB60 PUSH2 0x12B6 JUMP JUMPDEST JUMPDEST PUSH1 0x20 MUL PUSH1 0x20 ADD ADD DUP2 DUP2 MSTORE POP POP DUP7 DUP2 DUP2 MLOAD DUP2 LT PUSH2 0xB80 JUMPI PUSH2 0xB7F PUSH2 0x12B6 JUMP JUMPDEST JUMPDEST PUSH1 0x20 MUL PUSH1 0x20 ADD ADD MLOAD PUSH1 0x20 ADD MLOAD DUP3 PUSH1 0x1 PUSH1 0x6 DUP5 PUSH2 0xB9C SWAP2 SWAP1 PUSH2 0x13DC JUMP JUMPDEST PUSH2 0xBA6 SWAP2 SWAP1 PUSH2 0x1314 JUMP JUMPDEST DUP2 MLOAD DUP2 LT PUSH2 0xBB7 JUMPI PUSH2 0xBB6 PUSH2 0x12B6 JUMP JUMPDEST JUMPDEST PUSH1 0x20 MUL PUSH1 0x20 ADD ADD DUP2 DUP2 MSTORE POP POP DUP6 DUP2 DUP2 MLOAD DUP2 LT PUSH2 0xBD6 JUMPI PUSH2 0xBD5 PUSH2 0x12B6 JUMP JUMPDEST JUMPDEST PUSH1 0x20 MUL PUSH1 0x20 ADD ADD MLOAD PUSH1 0x0 ADD MLOAD PUSH1 0x1 PUSH1 0x2 DUP2 LT PUSH2 0xBF5 JUMPI PUSH2 0xBF4 PUSH2 0x12B6 JUMP JUMPDEST JUMPDEST PUSH1 0x20 MUL ADD MLOAD DUP3 PUSH1 0x2 PUSH1 0x6 DUP5 PUSH2 0xC0A SWAP2 SWAP1 PUSH2 0x13DC JUMP JUMPDEST PUSH2 0xC14 SWAP2 SWAP1 PUSH2 0x1314 JUMP JUMPDEST DUP2 MLOAD DUP2 LT PUSH2 0xC25 JUMPI PUSH2 0xC24 PUSH2 0x12B6 JUMP JUMPDEST JUMPDEST PUSH1 0x20 MUL PUSH1 0x20 ADD ADD DUP2 DUP2 MSTORE POP POP DUP6 DUP2 DUP2 MLOAD DUP2 LT PUSH2 0xC44 JUMPI PUSH2 0xC43 PUSH2 0x12B6 JUMP JUMPDEST JUMPDEST PUSH1 0x20 MUL PUSH1 0x20 ADD ADD MLOAD PUSH1 0x0 ADD MLOAD PUSH1 0x0 PUSH1 0x2 DUP2 LT PUSH2 0xC63 JUMPI PUSH2 0xC62 PUSH2 0x12B6 JUMP JUMPDEST JUMPDEST PUSH1 0x20 MUL ADD MLOAD DUP3 PUSH1 0x3 PUSH1 0x6 DUP5 PUSH2 0xC78 SWAP2 SWAP1 PUSH2 0x13DC JUMP JUMPDEST PUSH2 0xC82 SWAP2 SWAP1 PUSH2 0x1314 JUMP JUMPDEST DUP2 MLOAD DUP2 LT PUSH2 0xC93 JUMPI PUSH2 0xC92 PUSH2 0x12B6 JUMP JUMPDEST JUMPDEST PUSH1 0x20 MUL PUSH1 0x20 ADD ADD DUP2 DUP2 MSTORE POP POP DUP6 DUP2 DUP2 MLOAD DUP2 LT PUSH2 0xCB2 JUMPI PUSH2 0xCB1 PUSH2 0x12B6 JUMP JUMPDEST JUMPDEST PUSH1 0x20 MUL PUSH1 0x20 ADD ADD MLOAD PUSH1 0x20 ADD MLOAD PUSH1 0x1 PUSH1 0x2 DUP2 LT PUSH2 0xCD1 JUMPI PUSH2 0xCD0 PUSH2 0x12B6 JUMP JUMPDEST JUMPDEST PUSH1 0x20 MUL ADD MLOAD DUP3 PUSH1 0x4 PUSH1 0x6 DUP5 PUSH2 0xCE6 SWAP2 SWAP1 PUSH2 0x13DC JUMP JUMPDEST PUSH2 0xCF0 SWAP2 SWAP1 PUSH2 0x1314 JUMP JUMPDEST DUP2 MLOAD DUP2 LT PUSH2 0xD01 JUMPI PUSH2 0xD00 PUSH2 0x12B6 JUMP JUMPDEST JUMPDEST PUSH1 0x20 MUL PUSH1 0x20 ADD ADD DUP2 DUP2 MSTORE POP POP DUP6 DUP2 DUP2 MLOAD DUP2 LT PUSH2 0xD20 JUMPI PUSH2 0xD1F PUSH2 0x12B6 JUMP JUMPDEST JUMPDEST PUSH1 0x20 MUL PUSH1 0x20 ADD ADD MLOAD PUSH1 0x20 ADD MLOAD PUSH1 0x0 PUSH1 0x2 DUP2 LT PUSH2 0xD3F JUMPI PUSH2 0xD3E PUSH2 0x12B6 JUMP JUMPDEST JUMPDEST PUSH1 0x20 MUL ADD MLOAD DUP3 PUSH1 0x5 PUSH1 0x6 DUP5 PUSH2 0xD54 SWAP2 SWAP1 PUSH2 0x13DC JUMP JUMPDEST PUSH2 0xD5E SWAP2 SWAP1 PUSH2 0x1314 JUMP JUMPDEST DUP2 MLOAD DUP2 LT PUSH2 0xD6F JUMPI PUSH2 0xD6E PUSH2 0x12B6 JUMP JUMPDEST JUMPDEST PUSH1 0x20 MUL PUSH1 0x20 ADD ADD DUP2 DUP2 MSTORE POP POP DUP1 DUP1 PUSH1 0x1 ADD SWAP2 POP POP PUSH2 0xB0F JUMP JUMPDEST POP PUSH2 0xD91 PUSH2 0xEB3 JUMP JUMPDEST PUSH1 0x0 PUSH1 0x20 DUP3 PUSH1 0x20 DUP7 MUL PUSH1 0x20 DUP7 ADD PUSH1 0x8 PUSH2 0x7D0 GAS SUB STATICCALL SWAP1 POP DUP1 PUSH1 0x0 DUP2 SUB PUSH2 0xDB3 JUMPI INVALID JUMPDEST POP DUP1 PUSH2 0xDBE JUMPI PUSH1 0x0 DUP1 REVERT JUMPDEST PUSH1 0x0 DUP3 PUSH1 0x0 PUSH1 0x1 DUP2 LT PUSH2 0xDD4 JUMPI PUSH2 0xDD3 PUSH2 0x12B6 JUMP JUMPDEST JUMPDEST PUSH1 0x20 MUL ADD MLOAD EQ ISZERO SWAP6 POP POP POP POP POP POP SWAP3 SWAP2 POP POP JUMP JUMPDEST PUSH1 0x40 MLOAD DUP1 PUSH1 0xA0 ADD PUSH1 0x40 MSTORE DUP1 PUSH2 0xDFB PUSH2 0xE2F JUMP JUMPDEST DUP2 MSTORE PUSH1 0x20 ADD PUSH2 0xE08 PUSH2 0xE8D JUMP JUMPDEST DUP2 MSTORE PUSH1 0x20 ADD PUSH2 0xE15 PUSH2 0xE8D JUMP JUMPDEST DUP2 MSTORE PUSH1 0x20 ADD PUSH2 0xE22 PUSH2 0xE8D JUMP JUMPDEST DUP2 MSTORE PUSH1 0x20 ADD PUSH1 0x60 DUP2 MSTORE POP SWAP1 JUMP JUMPDEST PUSH1 0x40 MLOAD DUP1 PUSH1 0x40 ADD PUSH1 0x40 MSTORE DUP1 PUSH1 0x0 DUP2 MSTORE PUSH1 0x20 ADD PUSH1 0x0 DUP2 MSTORE POP SWAP1 JUMP JUMPDEST PUSH1 0x40 MLOAD DUP1 PUSH1 0x60 ADD PUSH1 0x40 MSTORE DUP1 PUSH1 0x3 SWAP1 PUSH1 0x20 DUP3 MUL DUP1 CALLDATASIZE DUP4 CALLDATACOPY DUP1 DUP3 ADD SWAP2 POP POP SWAP1 POP POP SWAP1 JUMP JUMPDEST PUSH1 0x40 MLOAD DUP1 PUSH1 0x80 ADD PUSH1 0x40 MSTORE DUP1 PUSH1 0x4 SWAP1 PUSH1 0x20 DUP3 MUL DUP1 CALLDATASIZE DUP4 CALLDATACOPY DUP1 DUP3 ADD SWAP2 POP POP SWAP1 POP POP SWAP1 JUMP JUMPDEST PUSH1 0x40 MLOAD DUP1 PUSH1 0x40 ADD PUSH1 0x40 MSTORE DUP1 PUSH2 0xEA0 PUSH2 0xED5 JUMP JUMPDEST DUP2 MSTORE PUSH1 0x20 ADD PUSH2 0xEAD PUSH2 0xED5 JUMP JUMPDEST DUP2 MSTORE POP SWAP1 JUMP JUMPDEST PUSH1 0x40 MLOAD DUP1 PUSH1 0x20 ADD PUSH1 0x40 MSTORE DUP1 PUSH1 0x1 SWAP1 PUSH1 0x20 DUP3 MUL DUP1 CALLDATASIZE DUP4 CALLDATACOPY DUP1 DUP3 ADD SWAP2 POP POP SWAP1 POP POP SWAP1 JUMP JUMPDEST PUSH1 0x40 MLOAD DUP1 PUSH1 0x40 ADD PUSH1 0x40 MSTORE DUP1 PUSH1 0x2 SWAP1 PUSH1 0x20 DUP3 MUL DUP1 CALLDATASIZE DUP4 CALLDATACOPY DUP1 DUP3 ADD SWAP2 POP POP SWAP1 POP POP SWAP1 JUMP JUMPDEST PUSH1 0x0 PUSH1 0x40 MLOAD SWAP1 POP SWAP1 JUMP JUMPDEST PUSH1 0x0 DUP1 REVERT JUMPDEST PUSH1 0x0 DUP1 REVERT JUMPDEST PUSH1 0x0 PUSH1 0x1F NOT PUSH1 0x1F DUP4 ADD AND SWAP1 POP SWAP2 SWAP1 POP JUMP JUMPDEST PUSH32 0x4E487B7100000000000000000000000000000000000000000000000000000000 PUSH1 0x0 MSTORE PUSH1 0x41 PUSH1 0x4 MSTORE PUSH1 0x24 PUSH1 0x0 REVERT JUMPDEST PUSH2 0xF54 DUP3 PUSH2 0xF0B JUMP JUMPDEST DUP2 ADD DUP2 DUP2 LT PUSH8 0xFFFFFFFFFFFFFFFF DUP3 GT OR ISZERO PUSH2 0xF73 JUMPI PUSH2 0xF72 PUSH2 0xF1C JUMP JUMPDEST JUMPDEST DUP1 PUSH1 0x40 MSTORE POP POP POP JUMP JUMPDEST PUSH1 0x0 PUSH2 0xF86 PUSH2 0xEF7 JUMP JUMPDEST SWAP1 POP PUSH2 0xF92 DUP3 DUP3 PUSH2 0xF4B JUMP JUMPDEST SWAP2 SWAP1 POP JUMP JUMPDEST PUSH1 0x0 DUP2 SWAP1 POP SWAP2 SWAP1 POP JUMP JUMPDEST PUSH2 0xFAA DUP2 PUSH2 0xF97 JUMP JUMPDEST DUP2 EQ PUSH2 0xFB5 JUMPI PUSH1 0x0 DUP1 REVERT JUMPDEST POP JUMP JUMPDEST PUSH1 0x0 DUP2 CALLDATALOAD SWAP1 POP PUSH2 0xFC7 DUP2 PUSH2 0xFA1 JUMP JUMPDEST SWAP3 SWAP2 POP POP JUMP JUMPDEST PUSH1 0x0 PUSH1 0x40 DUP3 DUP5 SUB SLT ISZERO PUSH2 0xFE3 JUMPI PUSH2 0xFE2 PUSH2 0xF06 JUMP JUMPDEST JUMPDEST PUSH2 0xFED PUSH1 0x40 PUSH2 0xF7C JUMP JUMPDEST SWAP1 POP PUSH1 0x0 PUSH2 0xFFD DUP5 DUP3 DUP6 ADD PUSH2 0xFB8 JUMP JUMPDEST PUSH1 0x0 DUP4 ADD MSTORE POP PUSH1 0x20 PUSH2 0x1011 DUP5 DUP3 DUP6 ADD PUSH2 0xFB8 JUMP JUMPDEST PUSH1 0x20 DUP4 ADD MSTORE POP SWAP3 SWAP2 POP POP JUMP JUMPDEST PUSH1 0x0 DUP1 REVERT JUMPDEST PUSH1 0x0 PUSH8 0xFFFFFFFFFFFFFFFF DUP3 GT ISZERO PUSH2 0x103D JUMPI PUSH2 0x103C PUSH2 0xF1C JUMP JUMPDEST JUMPDEST PUSH1 0x20 DUP3 MUL SWAP1 POP SWAP2 SWAP1 POP JUMP JUMPDEST PUSH1 0x0 DUP1 REVERT JUMPDEST PUSH1 0x0 PUSH2 0x1060 PUSH2 0x105B DUP5 PUSH2 0x1022 JUMP JUMPDEST PUSH2 0xF7C JUMP JUMPDEST SWAP1 POP DUP1 PUSH1 0x20 DUP5 MUL DUP4 ADD DUP6 DUP2 GT ISZERO PUSH2 0x107A JUMPI PUSH2 0x1079 PUSH2 0x1048 JUMP JUMPDEST JUMPDEST DUP4 JUMPDEST DUP2 DUP2 LT ISZERO PUSH2 0x10A3 JUMPI DUP1 PUSH2 0x108F DUP9 DUP3 PUSH2 0xFB8 JUMP JUMPDEST DUP5 MSTORE PUSH1 0x20 DUP5 ADD SWAP4 POP POP PUSH1 0x20 DUP2 ADD SWAP1 POP PUSH2 0x107C JUMP JUMPDEST POP POP POP SWAP4 SWAP3 POP POP POP JUMP JUMPDEST PUSH1 0x0 DUP3 PUSH1 0x1F DUP4 ADD SLT PUSH2 0x10C2 JUMPI PUSH2 0x10C1 PUSH2 0x101D JUMP JUMPDEST JUMPDEST PUSH1 0x2 PUSH2 0x10CF DUP5 DUP3 DUP6 PUSH2 0x104D JUMP JUMPDEST SWAP2 POP POP SWAP3 SWAP2 POP POP JUMP JUMPDEST PUSH1 0x0 PUSH1 0x80 DUP3 DUP5 SUB SLT ISZERO PUSH2 0x10EE JUMPI PUSH2 0x10ED PUSH2 0xF06 JUMP JUMPDEST JUMPDEST PUSH2 0x10F8 PUSH1 0x40 PUSH2 0xF7C JUMP JUMPDEST SWAP1 POP PUSH1 0x0 PUSH2 0x1108 DUP5 DUP3 DUP6 ADD PUSH2 0x10AD JUMP JUMPDEST PUSH1 0x0 DUP4 ADD MSTORE POP PUSH1 0x40 PUSH2 0x111C DUP5 DUP3 DUP6 ADD PUSH2 0x10AD JUMP JUMPDEST PUSH1 0x20 DUP4 ADD MSTORE POP SWAP3 SWAP2 POP POP JUMP JUMPDEST PUSH1 0x0 PUSH2 0x100 DUP3 DUP5 SUB SLT ISZERO PUSH2 0x113F JUMPI PUSH2 0x113E PUSH2 0xF06 JUMP JUMPDEST JUMPDEST PUSH2 0x1149 PUSH1 0x60 PUSH2 0xF7C JUMP JUMPDEST SWAP1 POP PUSH1 0x0 PUSH2 0x1159 DUP5 DUP3 DUP6 ADD PUSH2 0xFCD JUMP JUMPDEST PUSH1 0x0 DUP4 ADD MSTORE POP PUSH1 0x40 PUSH2 0x116D DUP5 DUP3 DUP6 ADD PUSH2 0x10D8 JUMP JUMPDEST PUSH1 0x20 DUP4 ADD MSTORE POP PUSH1 0xC0 PUSH2 0x1181 DUP5 DUP3 DUP6 ADD PUSH2 0xFCD JUMP JUMPDEST PUSH1 0x40 DUP4 ADD MSTORE POP SWAP3 SWAP2 POP POP JUMP JUMPDEST PUSH1 0x0 PUSH8 0xFFFFFFFFFFFFFFFF DUP3 GT ISZERO PUSH2 0x11A8 JUMPI PUSH2 0x11A7 PUSH2 0xF1C JUMP JUMPDEST JUMPDEST PUSH1 0x20 DUP3 MUL SWAP1 POP SWAP2 SWAP1 POP JUMP JUMPDEST PUSH1 0x0 PUSH2 0x11C6 PUSH2 0x11C1 DUP5 PUSH2 0x118D JUMP JUMPDEST PUSH2 0xF7C JUMP JUMPDEST SWAP1 POP DUP1 PUSH1 0x20 DUP5 MUL DUP4 ADD DUP6 DUP2 GT ISZERO PUSH2 0x11E0 JUMPI PUSH2 0x11DF PUSH2 0x1048 JUMP JUMPDEST JUMPDEST DUP4 JUMPDEST DUP2 DUP2 LT ISZERO PUSH2 0x1209 JUMPI DUP1 PUSH2 0x11F5 DUP9 DUP3 PUSH2 0xFB8 JUMP JUMPDEST DUP5 MSTORE PUSH1 0x20 DUP5 ADD SWAP4 POP POP PUSH1 0x20 DUP2 ADD SWAP1 POP PUSH2 0x11E2 JUMP JUMPDEST POP POP POP SWAP4 SWAP3 POP POP POP JUMP JUMPDEST PUSH1 0x0 DUP3 PUSH1 0x1F DUP4 ADD SLT PUSH2 0x1228 JUMPI PUSH2 0x1227 PUSH2 0x101D JUMP JUMPDEST JUMPDEST PUSH1 0x1 PUSH2 0x1235 DUP5 DUP3 DUP6 PUSH2 0x11B3 JUMP JUMPDEST SWAP2 POP POP SWAP3 SWAP2 POP POP JUMP JUMPDEST PUSH1 0x0 DUP1 PUSH2 0x120 DUP4 DUP6 SUB SLT ISZERO PUSH2 0x1256 JUMPI PUSH2 0x1255 PUSH2 0xF01 JUMP JUMPDEST JUMPDEST PUSH1 0x0 PUSH2 0x1264 DUP6 DUP3 DUP7 ADD PUSH2 0x1128 JUMP JUMPDEST SWAP3 POP POP PUSH2 0x100 PUSH2 0x1276 DUP6 DUP3 DUP7 ADD PUSH2 0x1213 JUMP JUMPDEST SWAP2 POP POP SWAP3 POP SWAP3 SWAP1 POP JUMP JUMPDEST PUSH1 0x0 DUP2 ISZERO ISZERO SWAP1 POP SWAP2 SWAP1 POP JUMP JUMPDEST PUSH2 0x1295 DUP2 PUSH2 0x1280 JUMP JUMPDEST DUP3 MSTORE POP POP JUMP JUMPDEST PUSH1 0x0 PUSH1 0x20 DUP3 ADD SWAP1 POP PUSH2 0x12B0 PUSH1 0x0 DUP4 ADD DUP5 PUSH2 0x128C JUMP JUMPDEST SWAP3 SWAP2 POP POP JUMP JUMPDEST PUSH32 0x4E487B7100000000000000000000000000000000000000000000000000000000 PUSH1 0x0 MSTORE PUSH1 0x32 PUSH1 0x4 MSTORE PUSH1 0x24 PUSH1 0x0 REVERT JUMPDEST PUSH32 0x4E487B7100000000000000000000000000000000000000000000000000000000 PUSH1 0x0 MSTORE PUSH1 0x11 PUSH1 0x4 MSTORE PUSH1 0x24 PUSH1 0x0 REVERT JUMPDEST PUSH1 0x0 PUSH2 0x131F DUP3 PUSH2 0xF97 JUMP JUMPDEST SWAP2 POP PUSH2 0x132A DUP4 PUSH2 0xF97 JUMP JUMPDEST SWAP3 POP DUP3 DUP3 ADD SWAP1 POP DUP1 DUP3 GT ISZERO PUSH2 0x1342 JUMPI PUSH2 0x1341 PUSH2 0x12E5 JUMP JUMPDEST JUMPDEST SWAP3 SWAP2 POP POP JUMP JUMPDEST PUSH32 0x4E487B7100000000000000000000000000000000000000000000000000000000 PUSH1 0x0 MSTORE PUSH1 0x12 PUSH1 0x4 MSTORE PUSH1 0x24 PUSH1 0x0 REVERT JUMPDEST PUSH1 0x0 PUSH2 0x1382 DUP3 PUSH2 0xF97 JUMP JUMPDEST SWAP2 POP PUSH2 0x138D DUP4 PUSH2 0xF97 JUMP JUMPDEST SWAP3 POP DUP3 PUSH2 0x139D JUMPI PUSH2 0x139C PUSH2 0x1348 JUMP JUMPDEST JUMPDEST DUP3 DUP3 MOD SWAP1 POP SWAP3 SWAP2 POP POP JUMP JUMPDEST PUSH1 0x0 PUSH2 0x13B3 DUP3 PUSH2 0xF97 JUMP JUMPDEST SWAP2 POP PUSH2 0x13BE DUP4 PUSH2 0xF97 JUMP JUMPDEST SWAP3 POP DUP3 DUP3 SUB SWAP1 POP DUP2 DUP2 GT ISZERO PUSH2 0x13D6 JUMPI PUSH2 0x13D5 PUSH2 0x12E5 JUMP JUMPDEST JUMPDEST SWAP3 SWAP2 POP POP JUMP JUMPDEST PUSH1 0x0 PUSH2 0x13E7 DUP3 PUSH2 0xF97 JUMP JUMPDEST SWAP2 POP PUSH2 0x13F2 DUP4 PUSH2 0xF97 JUMP JUMPDEST SWAP3 POP DUP3 DUP3 MUL PUSH2 0x1400 DUP2 PUSH2 0xF97 JUMP JUMPDEST SWAP2 POP DUP3 DUP3 DIV DUP5 EQ DUP4 ISZERO OR PUSH2 0x1417 JUMPI PUSH2 0x1416 PUSH2 0x12E5 JUMP JUMPDEST JUMPDEST POP SWAP3 SWAP2 POP POP JUMP INVALID LOG2 PUSH5 0x6970667358 0x22 SLT KECCAK256 PUSH16 0xC37063B0BB170DF0DD7BA21DD4AADCEE PUSH24 0x9AAF5A38BBB7D36887CB184EFAAB64736F6C634300081A00 CALLER "
		},
		"gasEstimates": {
			"creation": {
				"codeDepositCost": "1040800",
				"executionCost": "1080",
				"totalCost": "1041880"
			},
			"external": {
				"verifyTx(((uint256,uint256),(uint256[2],uint256[2]),(uint256,uint256)),uint256[1])": "infinite"
			},
			"internal": {
				"verify(uint256[] memory,struct Verifier.Proof memory)": "infinite",
				"verifyingKey()": "infinite"
			}
		},
		"methodIdentifiers": {
			"verifyTx(((uint256,uint256),(uint256[2],uint256[2]),(uint256,uint256)),uint256[1])": "f48d7729"
		}
	},
	"abi": [
		{
			"inputs": [
				{
					"components": [
						{
							"components": [
								{
									"internalType": "uint256",
									"name": "X",
									"type": "uint256"
								},
								{
									"internalType": "uint256",
									"name": "Y",
									"type": "uint256"
								}
							],
							"internalType": "struct Pairing.G1Point",
							"name": "a",
							"type": "tuple"
						},
						{
							"components": [
								{
									"internalType": "uint256[2]",
									"name": "X",
									"type": "uint256[2]"
								},
								{
									"internalType": "uint256[2]",
									"name": "Y",
									"type": "uint256[2]"
								}
							],
							"internalType": "struct Pairing.G2Point",
							"name": "b",
							"type": "tuple"
						},
						{
							"components": [
								{
									"internalType": "uint256",
									"name": "X",
									"type": "uint256"
								},
								{
									"internalType": "uint256",
									"name": "Y",
									"type": "uint256"
								}
							],
							"internalType": "struct Pairing.G1Point",
							"name": "c",
							"type": "tuple"
						}
					],
					"internalType": "struct Verifier.Proof",
					"name": "proof",
					"type": "tuple"
				},
				{
					"internalType": "uint256[1]",
					"name": "input",
					"type": "uint256[1]"
				}
			],
			"name": "verifyTx",
			"outputs": [
				{
					"internalType": "bool",
					"name": "r",
					"type": "bool"
				}
			],
			"stateMutability": "view",
			"type": "function"
		}
	]
}